{
  "contractName": "Roulette",
  "abi": [
    {
      "constant": true,
      "inputs": [],
      "name": "croupier",
      "outputs": [
        {
          "name": "",
          "type": "address"
        }
      ],
      "payable": false,
      "stateMutability": "view",
      "type": "function"
    },
    {
      "constant": true,
      "inputs": [
        {
          "name": "",
          "type": "uint256"
        }
      ],
      "name": "players",
      "outputs": [
        {
          "name": "",
          "type": "address"
        }
      ],
      "payable": false,
      "stateMutability": "view",
      "type": "function"
    },
    {
      "inputs": [
        {
          "name": "stakeAmountInWei",
          "type": "uint256"
        }
      ],
      "payable": false,
      "stateMutability": "nonpayable",
      "type": "constructor"
    },
    {
      "payable": false,
      "stateMutability": "nonpayable",
      "type": "fallback"
    },
    {
      "constant": true,
      "inputs": [],
      "name": "getTableStake",
      "outputs": [
        {
          "name": "",
          "type": "uint256"
        }
      ],
      "payable": false,
      "stateMutability": "view",
      "type": "function"
    },
    {
      "constant": false,
      "inputs": [],
      "name": "betOnOddNumber",
      "outputs": [],
      "payable": true,
      "stateMutability": "payable",
      "type": "function"
    },
    {
      "constant": false,
      "inputs": [],
      "name": "betOnEvenNumber",
      "outputs": [],
      "payable": true,
      "stateMutability": "payable",
      "type": "function"
    },
    {
      "constant": true,
      "inputs": [],
      "name": "isBettingAllowed",
      "outputs": [
        {
          "name": "",
          "type": "bool"
        }
      ],
      "payable": false,
      "stateMutability": "view",
      "type": "function"
    },
    {
      "constant": false,
      "inputs": [],
      "name": "closeBets",
      "outputs": [],
      "payable": false,
      "stateMutability": "nonpayable",
      "type": "function"
    },
    {
      "constant": false,
      "inputs": [
        {
          "name": "numberDrawn",
          "type": "int16"
        }
      ],
      "name": "setWinningNumber",
      "outputs": [],
      "payable": false,
      "stateMutability": "nonpayable",
      "type": "function"
    },
    {
      "constant": true,
      "inputs": [],
      "name": "getWinningNumber",
      "outputs": [
        {
          "name": "",
          "type": "int256"
        }
      ],
      "payable": false,
      "stateMutability": "view",
      "type": "function"
    },
    {
      "constant": false,
      "inputs": [],
      "name": "closeTable",
      "outputs": [],
      "payable": false,
      "stateMutability": "nonpayable",
      "type": "function"
    }
  ],
  "bytecode": "0x60806040526000600360006101000a81548160ff02191690831515021790555034801561002b57600080fd5b50604051602080611322833981018060405281019080805190602001909291905050506000811115156100ec576040517f08c379a00000000000000000000000000000000000000000000000000000000081526004018080602001828103825260248152602001807f41207374616b6520697320726571756972656420746f206f70656e206120746181526020017f626c652e0000000000000000000000000000000000000000000000000000000081525060400191505060405180910390fd5b336000806101000a81548173ffffffffffffffffffffffffffffffffffffffff021916908373ffffffffffffffffffffffffffffffffffffffff160217905550806002819055506001600360006101000a81548160ff0219169083151502179055507fffffffffffffffffffffffffffffffffffffffffffffffffffffffffffffffff600660006101000a81548161ffff021916908360010b61ffff160217905550506111848061019e6000396000f3006080604052600436106100a4576000357c0100000000000000000000000000000000000000000000000000000000900463ffffffff168063106a9f7814610145578063181d935c1461014f578063537775f8146101595780635f1f5b6e1461018957806364953b93146101b85780636b5c5f39146101cf578063886e3437146102265780638b0b9ed41461023d578063ba83cf2114610268578063f71d96cb14610293575b3480156100b057600080fd5b506040517f08c379a000000000000000000000000000000000000000000000000000000000815260040180806020018281038252602e8152602001807f546869732066756e6374696f6e206973206e6f7420616c6c6f7765642e20547281526020017f7920616e6f74686572206f6e652e00000000000000000000000000000000000081525060400191505060405180910390fd5b61014d610300565b005b6101576106c6565b005b34801561016557600080fd5b50610187600480360381019080803560010b9060200190929190505050610a8c565b005b34801561019557600080fd5b5061019e610de5565b604051808215151515815260200191505060405180910390f35b3480156101c457600080fd5b506101cd610dfc565b005b3480156101db57600080fd5b506101e4610f20565b604051808273ffffffffffffffffffffffffffffffffffffffff1673ffffffffffffffffffffffffffffffffffffffff16815260200191505060405180910390f35b34801561023257600080fd5b5061023b610f45565b005b34801561024957600080fd5b506102526110f6565b6040518082815260200191505060405180910390f35b34801561027457600080fd5b5061027d611110565b6040518082815260200191505060405180910390f35b34801561029f57600080fd5b506102be6004803603810190808035906020019092919050505061111a565b604051808273ffffffffffffffffffffffffffffffffffffffff1673ffffffffffffffffffffffffffffffffffffffff16815260200191505060405180910390f35b3373ffffffffffffffffffffffffffffffffffffffff166000809054906101000a900473ffffffffffffffffffffffffffffffffffffffff1673ffffffffffffffffffffffffffffffffffffffff16141515156103c5576040517f08c379a00000000000000000000000000000000000000000000000000000000081526004018080602001828103825260208152602001807f54686520686f757365206973206e6f7420616c6c6f77656420746f206265742e81525060200191505060405180910390fd5b6002543414151561043e576040517f08c379a000000000000000000000000000000000000000000000000000000000815260040180806020018281038252601b8152602001807f4d757374206d6174636820746865207461626c65207374616b652e000000000081525060200191505060405180910390fd5b600360009054906101000a900460ff1615156104c2576040517f08c379a00000000000000000000000000000000000000000000000000000000081526004018080602001828103825260168152602001807f546865207461626c65206973206e6f74206f70656e2e0000000000000000000081525060200191505060405180910390fd5b600560003373ffffffffffffffffffffffffffffffffffffffff1673ffffffffffffffffffffffffffffffffffffffff16815260200190815260200160002060009054906101000a900460ff16151515610584576040517f08c379a000000000000000000000000000000000000000000000000000000000815260040180806020018281038252601d8152602001807f416c726561647920706c6163656420612073696d696c6172206265742e00000081525060200191505060405180910390fd5b600460003373ffffffffffffffffffffffffffffffffffffffff1673ffffffffffffffffffffffffffffffffffffffff16815260200190815260200160002060009054906101000a900460ff1615151561066c576040517f08c379a00000000000000000000000000000000000000000000000000000000081526004018080602001828103825260248152602001807f416c726561647920706c61636564206120626574206f6e206f6464206e756d6281526020017f6572732e0000000000000000000000000000000000000000000000000000000081525060400191505060405180910390fd5b6001600560003373ffffffffffffffffffffffffffffffffffffffff1673ffffffffffffffffffffffffffffffffffffffff16815260200190815260200160002060006101000a81548160ff021916908315150217905550565b3373ffffffffffffffffffffffffffffffffffffffff166000809054906101000a900473ffffffffffffffffffffffffffffffffffffffff1673ffffffffffffffffffffffffffffffffffffffff161415151561078b576040517f08c379a00000000000000000000000000000000000000000000000000000000081526004018080602001828103825260208152602001807f54686520686f757365206973206e6f7420616c6c6f77656420746f206265742e81525060200191505060405180910390fd5b60025434141515610804576040517f08c379a000000000000000000000000000000000000000000000000000000000815260040180806020018281038252601b8152602001807f4d757374206d6174636820746865207461626c65207374616b652e000000000081525060200191505060405180910390fd5b600360009054906101000a900460ff161515610888576040517f08c379a00000000000000000000000000000000000000000000000000000000081526004018080602001828103825260168152602001807f546865207461626c65206973206e6f74206f70656e2e0000000000000000000081525060200191505060405180910390fd5b600460003373ffffffffffffffffffffffffffffffffffffffff1673ffffffffffffffffffffffffffffffffffffffff16815260200190815260200160002060009054906101000a900460ff1615151561094a576040517f08c379a000000000000000000000000000000000000000000000000000000000815260040180806020018281038252601d8152602001807f416c726561647920706c6163656420612073696d696c6172206265742e00000081525060200191505060405180910390fd5b600560003373ffffffffffffffffffffffffffffffffffffffff1673ffffffffffffffffffffffffffffffffffffffff16815260200190815260200160002060009054906101000a900460ff16151515610a32576040517f08c379a00000000000000000000000000000000000000000000000000000000081526004018080602001828103825260258152602001807f416c726561647920706c61636564206120626574206f6e206576656e206e756d81526020017f626572732e00000000000000000000000000000000000000000000000000000081525060400191505060405180910390fd5b6001600460003373ffffffffffffffffffffffffffffffffffffffff1673ffffffffffffffffffffffffffffffffffffffff16815260200190815260200160002060006101000a81548160ff021916908315150217905550565b6000809054906101000a900473ffffffffffffffffffffffffffffffffffffffff1673ffffffffffffffffffffffffffffffffffffffff163373ffffffffffffffffffffffffffffffffffffffff16141515610b76576040517f08c379a00000000000000000000000000000000000000000000000000000000081526004018080602001828103825260228152602001807f4f6e6c79206f776e65722063616e2063616c6c20746869732066756e6374696f81526020017f6e2e00000000000000000000000000000000000000000000000000000000000081525060400191505060405180910390fd5b600360009054906101000a900460ff16151515610c21576040517f08c379a00000000000000000000000000000000000000000000000000000000081526004018080602001828103825260258152602001807f546865207461626c65206d75737420626520636c6f73656420666f722062657481526020017f74696e672e00000000000000000000000000000000000000000000000000000081525060400191505060405180910390fd5b6000600660009054906101000a900460010b60010b121515610cd1576040517f08c379a00000000000000000000000000000000000000000000000000000000081526004018080602001828103825260228152602001807f5468652077696e6e696e67206e756d62657220697320616c726561647920736581526020017f742e00000000000000000000000000000000000000000000000000000000000081525060400191505060405180910390fd5b60008160010b12158015610ce9575060248160010b13155b1515610d83576040517f08c379a00000000000000000000000000000000000000000000000000000000081526004018080602001828103825260248152602001807f412076616c696420726f756c65747465206e756d62657220697320726571756981526020017f7265642e0000000000000000000000000000000000000000000000000000000081525060400191505060405180910390fd5b80600660006101000a81548161ffff021916908360010b61ffff16021790555060006002600660009054906101000a900460010b60010b811515610dc357fe5b0760010b1415600660026101000a81548160ff02191690831515021790555050565b6000600360009054906101000a900460ff16905090565b6000809054906101000a900473ffffffffffffffffffffffffffffffffffffffff1673ffffffffffffffffffffffffffffffffffffffff163373ffffffffffffffffffffffffffffffffffffffff16141515610ee6576040517f08c379a00000000000000000000000000000000000000000000000000000000081526004018080602001828103825260228152602001807f4f6e6c79206f776e65722063616e2063616c6c20746869732066756e6374696f81526020017f6e2e00000000000000000000000000000000000000000000000000000000000081525060400191505060405180910390fd5b6000809054906101000a900473ffffffffffffffffffffffffffffffffffffffff1673ffffffffffffffffffffffffffffffffffffffff16ff5b6000809054906101000a900473ffffffffffffffffffffffffffffffffffffffff1681565b6000809054906101000a900473ffffffffffffffffffffffffffffffffffffffff1673ffffffffffffffffffffffffffffffffffffffff163373ffffffffffffffffffffffffffffffffffffffff1614151561102f576040517f08c379a00000000000000000000000000000000000000000000000000000000081526004018080602001828103825260228152602001807f4f6e6c79206f776e65722063616e2063616c6c20746869732066756e6374696f81526020017f6e2e00000000000000000000000000000000000000000000000000000000000081525060400191505060405180910390fd5b600360009054906101000a900460ff1615156110d9576040517f08c379a00000000000000000000000000000000000000000000000000000000081526004018080602001828103825260258152602001807f546865207461626c6520697320616c726561647920636c6f73656420666f722081526020017f626574732e00000000000000000000000000000000000000000000000000000081525060400191505060405180910390fd5b6000600360006101000a81548160ff021916908315150217905550565b6000600660009054906101000a900460010b60010b905090565b6000600254905090565b60018181548110151561112957fe5b906000526020600020016000915054906101000a900473ffffffffffffffffffffffffffffffffffffffff16815600a165627a7a72305820d6f01e2c54adef2f52cc186ead57a526b04607505e199d304b542a33d74ea7aa0029",
  "source": "pragma solidity ^0.4.24;\n\ncontract Roulette{\n    // The croupier is the creator/owner of the smart contract.\n    address public croupier;\n\n    // Array of players participating in this table\n    address[] public players;\n    \n    // The roulette gas a fixed stake set by the croupier.\n    uint private tableStakeInWei;    \n    bool private isTableOpen = false;\n    \n    // Mapping to check if an address placed a bet on either odd or even numbers.\n    // It is not allowed to bet on both in one session.\n    mapping(address => bool) private oddBets;\n    mapping(address => bool) private evenBets;\n\n    int16 private winningNumber;\n    bool private isWinningNumberOdd;\n\n    // Enum representing the choices between odd and even betting\n    enum OddEvenBet {\n        OddNumber,\n        EvenNumber\n    }\n\n    // A struct which holds player information for this gaming 'session'\n    struct PlayerSessionInformation {\n        OddEvenBet oddEvenBet;\n    }\n\n    // Function modifier which requires the caller \n    // of the function to be the owner of the contract.\n    // Source: https://solidity.readthedocs.io/en/v0.5.1/structure-of-a-contract.html?highlight=modifiers#structure-function-modifiers\n    modifier ownerRequired {\n        require(\n            msg.sender == croupier,\n            \"Only owner can call this function.\"\n        );\n        _;\n    }\n\n    // Common requirements to place bets, refactored under one modifier.\n    // The croupier/owner cannot place a bet.\n    // Payment must match stake.\n    // Table is open for betting.\n    modifier bettingRequirements {\n        require(!(croupier == msg.sender), \"The house is not allowed to bet.\");\n        require(msg.value == tableStakeInWei, \"Must match the table stake.\");\n        require(isTableOpen,\"The table is not open.\");\n        _;\n    }\n\n    constructor(uint stakeAmountInWei) public\n    {\n        require(stakeAmountInWei > 0, \"A stake is required to open a table.\");\n        croupier = msg.sender;\n        tableStakeInWei = stakeAmountInWei;\n        isTableOpen = true;\n        winningNumber = -1;\n    }\n\n    // A function in which state is not changed. This is denoted by the view modifier.\n    // This is a getter function, and is used to expose the value of private variables.\n    // Security measure: Setter functions for these sensitive variables are protcted by the owner modifier.\n    // These variables can be read but not tampered with.\n    function getTableStake() public view returns (uint) {\n        return tableStakeInWei;\n    }\n\n    // Place a bet that the resullt will be an odd number.\n    function betOnOddNumber() public payable bettingRequirements\n    {   \n        // One cannot bet twice the same bet.\n        require(!(oddBets[msg.sender]), \"Already placed a similar bet.\");\n        // Either bet on odd or even.\n        require(!(evenBets[msg.sender]), \"Already placed a bet on even numbers.\");\n        \n        oddBets[msg.sender] = true;\n    }\n\n    // Bet that the result will be an even number.\n    function betOnEvenNumber() public payable bettingRequirements\n    {        \n        // One cannot bet twice the same bet.\n        require(!(evenBets[msg.sender]), \"Already placed a similar bet.\");\n        // Either bet on odd or even.\n        require(!(oddBets[msg.sender]), \"Already placed a bet on odd numbers.\");\n        \n        evenBets[msg.sender] = true;\n    }\n\n    // A function in which checks is betting is allowed.\n    // The idea behind this function is not to allow the roulette 'spin' while players are allowed to bet.\n    function isBettingAllowed() public view returns (bool) {\n        return isTableOpen;\n    }\n\n    // Closes the table for betting.\n    // Only the croupier is allowed to close the table.\n    // The function is called before drawing the number, that is, before the roulette starts 'spinning'.\n    function closeBets() public ownerRequired {\n        // We put a require so we do not spend unnecessary gas if the method is called consecutively.\n        require(isTableOpen,\"The table is already closed for bets.\");\n        isTableOpen = false;\n    }\n\n    // Sets the number drawn.\n    // Only the croupier is allowed to set the number drawn.\n    // The function is called after drawing the number, that is, after the 'spin' completes.\n    function setWinningNumber(int16 numberDrawn) public ownerRequired {\n        require(!isTableOpen,\"The table must be closed for betting.\");\n        // The winning number can only se set once.\n        // This is not the optimum solution but work for the purposes of this system under development.\n        require(winningNumber < 0, \"The winning number is already set.\");\n        require(numberDrawn >= 0 && numberDrawn <= 36, \"A valid roulette number is required.\");\n        winningNumber = numberDrawn;\n        isWinningNumberOdd = (winningNumber % 2 != 0);\n    }\n\n    // Get the winning number.\n    function getWinningNumber() public view returns (int) {\n        return winningNumber;\n    }\n\n    // Closes the table, destroying the smart contract.\n    // Only the croupier is allowed to close the table.\n    function closeTable() public ownerRequired {\n        // Convert croupier frm address to address payable.\n        selfdestruct(address(uint160(croupier)));\n    }\n\n    // The fallback function is used when the smart contract is called \n    // with a function identifier which does not exist.\n    function() external {\n        revert(\"This function is not allowed. Try another one.\");\n    }\n}\n",
  "sourcePath": "C:\\Users\\Nicholas Vella\\blockchain-casino\\contracts\\Roulette.sol",
  "compiler": {
    "name": "solc",
    "version": "0.4.24+commit.e67f0147.Emscripten.clang"
  },
  "schemaVersion": "2.0.1",
  "updatedAt": "2019-01-26T08:35:20.644Z"
}