{
  "contractName": "Roulette",
  "abi": [
    {
      "constant": true,
      "inputs": [],
      "name": "croupier",
      "outputs": [
        {
          "name": "",
          "type": "address"
        }
      ],
      "payable": false,
      "stateMutability": "view",
      "type": "function"
    },
    {
      "inputs": [
        {
          "name": "stakeAmount",
          "type": "uint256"
        }
      ],
      "payable": false,
      "stateMutability": "nonpayable",
      "type": "constructor"
    },
    {
      "payable": false,
      "stateMutability": "nonpayable",
      "type": "fallback"
    },
    {
      "constant": false,
      "inputs": [],
      "name": "closeTable",
      "outputs": [],
      "payable": false,
      "stateMutability": "nonpayable",
      "type": "function"
    }
  ],
  "bytecode": "0x60806040526000600260006101000a81548160ff02191690831515021790555034801561002b57600080fd5b5060405160208061039083398101806040528101908080519060200190929190505050336000806101000a81548173ffffffffffffffffffffffffffffffffffffffff021916908373ffffffffffffffffffffffffffffffffffffffff160217905550806001819055506001600260006101000a81548160ff021916908315150217905550506102d0806100c06000396000f30060806040526004361061004c576000357c0100000000000000000000000000000000000000000000000000000000900463ffffffff16806364953b93146100ed5780636b5c5f3914610104575b34801561005857600080fd5b506040517f08c379a000000000000000000000000000000000000000000000000000000000815260040180806020018281038252602e8152602001807f546869732066756e6374696f6e206973206e6f7420616c6c6f7765642e20547281526020017f7920616e6f74686572206f6e652e00000000000000000000000000000000000081525060400191505060405180910390fd5b3480156100f957600080fd5b5061010261015b565b005b34801561011057600080fd5b5061011961027f565b604051808273ffffffffffffffffffffffffffffffffffffffff1673ffffffffffffffffffffffffffffffffffffffff16815260200191505060405180910390f35b6000809054906101000a900473ffffffffffffffffffffffffffffffffffffffff1673ffffffffffffffffffffffffffffffffffffffff163373ffffffffffffffffffffffffffffffffffffffff16141515610245576040517f08c379a00000000000000000000000000000000000000000000000000000000081526004018080602001828103825260228152602001807f4f6e6c79206f776e65722063616e2063616c6c20746869732066756e6374696f81526020017f6e2e00000000000000000000000000000000000000000000000000000000000081525060400191505060405180910390fd5b6000809054906101000a900473ffffffffffffffffffffffffffffffffffffffff1673ffffffffffffffffffffffffffffffffffffffff16ff5b6000809054906101000a900473ffffffffffffffffffffffffffffffffffffffff16815600a165627a7a7230582091ab4ffd4633952c10f29a05145ce79cd371e0737b722ca007c6e96e4c0431080029",
  "source": "pragma solidity ^0.4.24;\n\ncontract Roulette{\n    // The croupier is the creator/owner of the smart contract.\n    address public croupier;\n    // The roulette gas a fixed stake set by the croupier.\n    uint256 tableStake;\n    bool isTableOpen = false;\n\n    // Function modifier which requires the caller \n    // of the function to be the owner of the contract.\n    // Source: https://solidity.readthedocs.io/en/v0.5.1/structure-of-a-contract.html?highlight=modifiers#structure-function-modifiers\n    modifier ownerRequired {\n        require(\n            msg.sender == croupier,\n            \"Only owner can call this function.\"\n        );\n        _;\n    }\n\n    constructor(uint256 stakeAmount) public\n    {\n        croupier = msg.sender;\n        tableStake = stakeAmount;\n        isTableOpen = true;\n    }\n\n    // Closes the table, destroying the smart contract.\n    // Only the creator of the \n    function closeTable() public ownerRequired {\n        // Convert croupier frm address to address payable.\n        selfdestruct(address(uint160(croupier)));\n    }\n\n    // The fallback function is used when the smart contract is called \n    // with a function identifier which does not exist.\n    function() external {\n        revert(\"This function is not allowed. Try another one.\");\n    }\n}\n",
  "sourcePath": "C:\\Users\\Nicholas Vella\\blockchain-casino\\contracts\\Roulette.sol",
  "compiler": {
    "name": "solc",
    "version": "0.4.24+commit.e67f0147.Emscripten.clang"
  },
  "schemaVersion": "2.0.1",
  "updatedAt": "2019-01-19T08:08:09.813Z"
}