{
  "contractName": "Roulette",
  "abi": [
    {
      "constant": true,
      "inputs": [],
      "name": "croupier",
      "outputs": [
        {
          "name": "",
          "type": "address"
        }
      ],
      "payable": false,
      "stateMutability": "view",
      "type": "function"
    },
    {
      "constant": true,
      "inputs": [
        {
          "name": "",
          "type": "uint256"
        }
      ],
      "name": "players",
      "outputs": [
        {
          "name": "",
          "type": "address"
        }
      ],
      "payable": false,
      "stateMutability": "view",
      "type": "function"
    },
    {
      "inputs": [
        {
          "name": "stakeAmountInWei",
          "type": "uint256"
        }
      ],
      "payable": false,
      "stateMutability": "nonpayable",
      "type": "constructor"
    },
    {
      "payable": false,
      "stateMutability": "nonpayable",
      "type": "fallback"
    },
    {
      "constant": true,
      "inputs": [],
      "name": "getTableStake",
      "outputs": [
        {
          "name": "",
          "type": "uint256"
        }
      ],
      "payable": false,
      "stateMutability": "view",
      "type": "function"
    },
    {
      "constant": false,
      "inputs": [],
      "name": "betOnOddNumber",
      "outputs": [],
      "payable": true,
      "stateMutability": "payable",
      "type": "function"
    },
    {
      "constant": false,
      "inputs": [],
      "name": "betOnEvenNumber",
      "outputs": [],
      "payable": true,
      "stateMutability": "payable",
      "type": "function"
    },
    {
      "constant": false,
      "inputs": [],
      "name": "closeBets",
      "outputs": [],
      "payable": false,
      "stateMutability": "nonpayable",
      "type": "function"
    },
    {
      "constant": false,
      "inputs": [
        {
          "name": "numberDrawn",
          "type": "int16"
        }
      ],
      "name": "setWinningNumber",
      "outputs": [],
      "payable": false,
      "stateMutability": "nonpayable",
      "type": "function"
    },
    {
      "constant": false,
      "inputs": [],
      "name": "withdrawWinnings",
      "outputs": [],
      "payable": false,
      "stateMutability": "nonpayable",
      "type": "function"
    },
    {
      "constant": true,
      "inputs": [],
      "name": "isBettingAllowed",
      "outputs": [
        {
          "name": "",
          "type": "bool"
        }
      ],
      "payable": false,
      "stateMutability": "view",
      "type": "function"
    },
    {
      "constant": true,
      "inputs": [],
      "name": "getWinningNumber",
      "outputs": [
        {
          "name": "",
          "type": "int256"
        }
      ],
      "payable": false,
      "stateMutability": "view",
      "type": "function"
    },
    {
      "constant": true,
      "inputs": [
        {
          "name": "player",
          "type": "address"
        }
      ],
      "name": "isPlayerSessionCreated",
      "outputs": [
        {
          "name": "",
          "type": "bool"
        }
      ],
      "payable": false,
      "stateMutability": "view",
      "type": "function"
    },
    {
      "constant": true,
      "inputs": [],
      "name": "getWithdrawableBalance",
      "outputs": [
        {
          "name": "",
          "type": "uint256"
        }
      ],
      "payable": false,
      "stateMutability": "view",
      "type": "function"
    },
    {
      "constant": false,
      "inputs": [],
      "name": "closeTable",
      "outputs": [],
      "payable": false,
      "stateMutability": "nonpayable",
      "type": "function"
    }
  ],
  "bytecode": "0x60806040526000600360006101000a81548160ff02191690831515021790555034801561002b57600080fd5b5060405160208061208f833981018060405281019080805190602001909291905050506000811115156100ec576040517f08c379a00000000000000000000000000000000000000000000000000000000081526004018080602001828103825260248152602001807f41207374616b6520697320726571756972656420746f206f70656e206120746181526020017f626c652e0000000000000000000000000000000000000000000000000000000081525060400191505060405180910390fd5b336000806101000a81548173ffffffffffffffffffffffffffffffffffffffff021916908373ffffffffffffffffffffffffffffffffffffffff160217905550806002819055506001600360006101000a81548160ff0219169083151502179055507fffffffffffffffffffffffffffffffffffffffffffffffffffffffffffffffff600660006101000a81548161ffff021916908360010b61ffff16021790555050611ef18061019e6000396000f3006080604052600436106100c5576000357c0100000000000000000000000000000000000000000000000000000000900463ffffffff168063106a9f7814610166578063181d935c1461017057806322b619c11461017a578063537775f8146101d55780635f1f5b6e1461020557806364953b93146102345780636b5c5f391461024b578063886e3437146102a25780638b0b9ed4146102b9578063ba83cf21146102e4578063be788e701461030f578063cc42e83a1461033a578063f71d96cb14610351575b3480156100d157600080fd5b506040517f08c379a000000000000000000000000000000000000000000000000000000000815260040180806020018281038252602e8152602001807f546869732066756e6374696f6e206973206e6f7420616c6c6f7765642e20547281526020017f7920616e6f74686572206f6e652e00000000000000000000000000000000000081525060400191505060405180910390fd5b61016e6103be565b005b61017861088e565b005b34801561018657600080fd5b506101bb600480360381019080803573ffffffffffffffffffffffffffffffffffffffff169060200190929190505050610d5e565b604051808215151515815260200191505060405180910390f35b3480156101e157600080fd5b50610203600480360381019080803560010b9060200190929190505050610ea1565b005b34801561021157600080fd5b5061021a61142f565b604051808215151515815260200191505060405180910390f35b34801561024057600080fd5b50610249611446565b005b34801561025757600080fd5b5061026061156a565b604051808273ffffffffffffffffffffffffffffffffffffffff1673ffffffffffffffffffffffffffffffffffffffff16815260200191505060405180910390f35b3480156102ae57600080fd5b506102b761158f565b005b3480156102c557600080fd5b506102ce611740565b6040518082815260200191505060405180910390f35b3480156102f057600080fd5b506102f961175a565b6040518082815260200191505060405180910390f35b34801561031b57600080fd5b50610324611764565b6040518082815260200191505060405180910390f35b34801561034657600080fd5b5061034f6118ff565b005b34801561035d57600080fd5b5061037c60048036038101908080359060200190929190505050611cf1565b604051808273ffffffffffffffffffffffffffffffffffffffff1673ffffffffffffffffffffffffffffffffffffffff16815260200191505060405180910390f35b3373ffffffffffffffffffffffffffffffffffffffff166000809054906101000a900473ffffffffffffffffffffffffffffffffffffffff1673ffffffffffffffffffffffffffffffffffffffff1614151515610483576040517f08c379a00000000000000000000000000000000000000000000000000000000081526004018080602001828103825260208152602001807f54686520686f757365206973206e6f7420616c6c6f77656420746f206265742e81525060200191505060405180910390fd5b600254341415156104fc576040517f08c379a000000000000000000000000000000000000000000000000000000000815260040180806020018281038252601b8152602001807f4d757374206d6174636820746865207461626c65207374616b652e000000000081525060200191505060405180910390fd5b600360009054906101000a900460ff161515610580576040517f08c379a00000000000000000000000000000000000000000000000000000000081526004018080602001828103825260168152602001807f546865207461626c65206973206e6f74206f70656e2e0000000000000000000081525060200191505060405180910390fd5b60011515600460003373ffffffffffffffffffffffffffffffffffffffff1673ffffffffffffffffffffffffffffffffffffffff16815260200190815260200160002060000160019054906101000a900460ff16151514801561064757506003808111156105ea57fe5b600460003373ffffffffffffffffffffffffffffffffffffffff1673ffffffffffffffffffffffffffffffffffffffff16815260200190815260200160002060000160009054906101000a900460ff16600381111561064557fe5b145b1515156106bc576040517f08c379a000000000000000000000000000000000000000000000000000000000815260040180806020018281038252601d8152602001807f416c726561647920706c6163656420612073696d696c6172206265742e00000081525060200191505060405180910390fd5b60011515600460003373ffffffffffffffffffffffffffffffffffffffff1673ffffffffffffffffffffffffffffffffffffffff16815260200190815260200160002060000160019054906101000a900460ff16151514801561078457506002600381111561072757fe5b600460003373ffffffffffffffffffffffffffffffffffffffff1673ffffffffffffffffffffffffffffffffffffffff16815260200190815260200160002060000160009054906101000a900460ff16600381111561078257fe5b145b15151561081f576040517f08c379a00000000000000000000000000000000000000000000000000000000081526004018080602001828103825260248152602001807f416c726561647920706c61636564206120626574206f6e206f6464206e756d6281526020017f6572732e0000000000000000000000000000000000000000000000000000000081525060400191505060405180910390fd5b61082833611d2f565b6003600460003373ffffffffffffffffffffffffffffffffffffffff1673ffffffffffffffffffffffffffffffffffffffff16815260200190815260200160002060000160006101000a81548160ff0219169083600381111561088757fe5b0217905550565b3373ffffffffffffffffffffffffffffffffffffffff166000809054906101000a900473ffffffffffffffffffffffffffffffffffffffff1673ffffffffffffffffffffffffffffffffffffffff1614151515610953576040517f08c379a00000000000000000000000000000000000000000000000000000000081526004018080602001828103825260208152602001807f54686520686f757365206973206e6f7420616c6c6f77656420746f206265742e81525060200191505060405180910390fd5b600254341415156109cc576040517f08c379a000000000000000000000000000000000000000000000000000000000815260040180806020018281038252601b8152602001807f4d757374206d6174636820746865207461626c65207374616b652e000000000081525060200191505060405180910390fd5b600360009054906101000a900460ff161515610a50576040517f08c379a00000000000000000000000000000000000000000000000000000000081526004018080602001828103825260168152602001807f546865207461626c65206973206e6f74206f70656e2e0000000000000000000081525060200191505060405180910390fd5b60011515600460003373ffffffffffffffffffffffffffffffffffffffff1673ffffffffffffffffffffffffffffffffffffffff16815260200190815260200160002060000160019054906101000a900460ff161515148015610b18575060026003811115610abb57fe5b600460003373ffffffffffffffffffffffffffffffffffffffff1673ffffffffffffffffffffffffffffffffffffffff16815260200190815260200160002060000160009054906101000a900460ff166003811115610b1657fe5b145b151515610b8d576040517f08c379a000000000000000000000000000000000000000000000000000000000815260040180806020018281038252601d8152602001807f416c726561647920706c6163656420612073696d696c6172206265742e00000081525060200191505060405180910390fd5b60011515600460003373ffffffffffffffffffffffffffffffffffffffff1673ffffffffffffffffffffffffffffffffffffffff16815260200190815260200160002060000160019054906101000a900460ff161515148015610c545750600380811115610bf757fe5b600460003373ffffffffffffffffffffffffffffffffffffffff1673ffffffffffffffffffffffffffffffffffffffff16815260200190815260200160002060000160009054906101000a900460ff166003811115610c5257fe5b145b151515610cef576040517f08c379a00000000000000000000000000000000000000000000000000000000081526004018080602001828103825260258152602001807f416c726561647920706c61636564206120626574206f6e206576656e206e756d81526020017f626572732e00000000000000000000000000000000000000000000000000000081525060400191505060405180910390fd5b610cf833611d2f565b6002600460003373ffffffffffffffffffffffffffffffffffffffff1673ffffffffffffffffffffffffffffffffffffffff16815260200190815260200160002060000160006101000a81548160ff02191690836003811115610d5757fe5b0217905550565b60008060009054906101000a900473ffffffffffffffffffffffffffffffffffffffff1673ffffffffffffffffffffffffffffffffffffffff163373ffffffffffffffffffffffffffffffffffffffff16141515610e4a576040517f08c379a00000000000000000000000000000000000000000000000000000000081526004018080602001828103825260228152602001807f4f6e6c79206f776e65722063616e2063616c6c20746869732066756e6374696f81526020017f6e2e00000000000000000000000000000000000000000000000000000000000081525060400191505060405180910390fd5b600460008373ffffffffffffffffffffffffffffffffffffffff1673ffffffffffffffffffffffffffffffffffffffff16815260200190815260200160002060000160019054906101000a900460ff169050919050565b6000610eab611e9e565b60008060009054906101000a900473ffffffffffffffffffffffffffffffffffffffff1673ffffffffffffffffffffffffffffffffffffffff163373ffffffffffffffffffffffffffffffffffffffff16141515610f97576040517f08c379a00000000000000000000000000000000000000000000000000000000081526004018080602001828103825260228152602001807f4f6e6c79206f776e65722063616e2063616c6c20746869732066756e6374696f81526020017f6e2e00000000000000000000000000000000000000000000000000000000000081525060400191505060405180910390fd5b600360009054906101000a900460ff16151515611042576040517f08c379a00000000000000000000000000000000000000000000000000000000081526004018080602001828103825260258152602001807f546865207461626c65206d75737420626520636c6f73656420666f722062657481526020017f74696e672e00000000000000000000000000000000000000000000000000000081525060400191505060405180910390fd5b6000600660009054906101000a900460010b60010b1215156110f2576040517f08c379a00000000000000000000000000000000000000000000000000000000081526004018080602001828103825260228152602001807f5468652077696e6e696e67206e756d62657220697320616c726561647920736581526020017f742e00000000000000000000000000000000000000000000000000000000000081525060400191505060405180910390fd5b60008460010b1215801561110a575060248460010b13155b15156111a4576040517f08c379a00000000000000000000000000000000000000000000000000000000081526004018080602001828103825260248152602001807f412076616c696420726f756c65747465206e756d62657220697320726571756981526020017f7265642e0000000000000000000000000000000000000000000000000000000081525060400191505060405180910390fd5b83600660006101000a81548161ffff021916908360010b61ffff1602179055506000600660009054906101000a900460010b60010b1415611208576001600660026101000a81548160ff021916908360038111156111fe57fe5b0217905550611281565b60006002600660009054906101000a900460010b60010b81151561122857fe5b0760010b141561125b576003600660026101000a81548160ff0219169083600381111561125157fe5b0217905550611280565b6002600660026101000a81548160ff0219169083600381111561127a57fe5b02179055505b5b600092505b60018054905083101561142957600460006001858154811015156112a657fe5b9060005260206000200160009054906101000a900473ffffffffffffffffffffffffffffffffffffffff1673ffffffffffffffffffffffffffffffffffffffff1673ffffffffffffffffffffffffffffffffffffffff1681526020019081526020016000206040805190810160405290816000820160009054906101000a900460ff16600381111561133457fe5b600381111561133f57fe5b81526020016000820160019054906101000a900460ff161515151581525050915060009050600660029054906101000a900460ff16600381111561137f57fe5b8260000151600381111561138f57fe5b141561139f576002805402810190505b80600560006001868154811015156113b357fe5b9060005260206000200160009054906101000a900473ffffffffffffffffffffffffffffffffffffffff1673ffffffffffffffffffffffffffffffffffffffff1673ffffffffffffffffffffffffffffffffffffffff168152602001908152602001600020819055508280600101935050611286565b50505050565b6000600360009054906101000a900460ff16905090565b6000809054906101000a900473ffffffffffffffffffffffffffffffffffffffff1673ffffffffffffffffffffffffffffffffffffffff163373ffffffffffffffffffffffffffffffffffffffff16141515611530576040517f08c379a00000000000000000000000000000000000000000000000000000000081526004018080602001828103825260228152602001807f4f6e6c79206f776e65722063616e2063616c6c20746869732066756e6374696f81526020017f6e2e00000000000000000000000000000000000000000000000000000000000081525060400191505060405180910390fd5b6000809054906101000a900473ffffffffffffffffffffffffffffffffffffffff1673ffffffffffffffffffffffffffffffffffffffff16ff5b6000809054906101000a900473ffffffffffffffffffffffffffffffffffffffff1681565b6000809054906101000a900473ffffffffffffffffffffffffffffffffffffffff1673ffffffffffffffffffffffffffffffffffffffff163373ffffffffffffffffffffffffffffffffffffffff16141515611679576040517f08c379a00000000000000000000000000000000000000000000000000000000081526004018080602001828103825260228152602001807f4f6e6c79206f776e65722063616e2063616c6c20746869732066756e6374696f81526020017f6e2e00000000000000000000000000000000000000000000000000000000000081525060400191505060405180910390fd5b600360009054906101000a900460ff161515611723576040517f08c379a00000000000000000000000000000000000000000000000000000000081526004018080602001828103825260258152602001807f546865207461626c6520697320616c726561647920636c6f73656420666f722081526020017f626574732e00000000000000000000000000000000000000000000000000000081525060400191505060405180910390fd5b6000600360006101000a81548160ff021916908315150217905550565b6000600660009054906101000a900460010b60010b905090565b6000600254905090565b6000600360009054906101000a900460ff16151515611811576040517f08c379a00000000000000000000000000000000000000000000000000000000081526004018080602001828103825260248152602001807f546865207461626c65206973206e6f7420636c6f73656420666f72206265747481526020017f696e672e0000000000000000000000000000000000000000000000000000000081525060400191505060405180910390fd5b7fffffffffffffffffffffffffffffffffffffffffffffffffffffffffffffffff600660009054906101000a900460010b60010b1315156118ba576040517f08c379a00000000000000000000000000000000000000000000000000000000081526004018080602001828103825260198152602001807f4e6f2077696e6e696e67206e756d626572206973207365742e0000000000000081525060200191505060405180910390fd5b600560003373ffffffffffffffffffffffffffffffffffffffff1673ffffffffffffffffffffffffffffffffffffffff16815260200190815260200160002054905090565b6000600360009054906101000a900460ff161515156119ac576040517f08c379a00000000000000000000000000000000000000000000000000000000081526004018080602001828103825260248152602001807f546865207461626c65206973206e6f7420636c6f73656420666f72206265747481526020017f696e672e0000000000000000000000000000000000000000000000000000000081525060400191505060405180910390fd5b7fffffffffffffffffffffffffffffffffffffffffffffffffffffffffffffffff600660009054906101000a900460010b60010b131515611a55576040517f08c379a00000000000000000000000000000000000000000000000000000000081526004018080602001828103825260198152602001807f4e6f2077696e6e696e67206e756d626572206973207365742e0000000000000081525060200191505060405180910390fd5b6000600560003373ffffffffffffffffffffffffffffffffffffffff1673ffffffffffffffffffffffffffffffffffffffff1681526020019081526020016000205414151515611b33576040517f08c379a00000000000000000000000000000000000000000000000000000000081526004018080602001828103825260238152602001807f546865726520617265206e6f20776974686472617761626c652077696e6e696e81526020017f67732e000000000000000000000000000000000000000000000000000000000081525060400191505060405180910390fd5b600560003373ffffffffffffffffffffffffffffffffffffffff1673ffffffffffffffffffffffffffffffffffffffff168152602001908152602001600020543073ffffffffffffffffffffffffffffffffffffffff163110151515611c27576040517f08c379a00000000000000000000000000000000000000000000000000000000081526004018080602001828103825260278152602001807f546865726520617265206e6f7420656e6f7567682066756e647320746f20747281526020017f616e736665722e0000000000000000000000000000000000000000000000000081525060400191505060405180910390fd5b600560003373ffffffffffffffffffffffffffffffffffffffff1673ffffffffffffffffffffffffffffffffffffffff1681526020019081526020016000205490506000600560003373ffffffffffffffffffffffffffffffffffffffff1673ffffffffffffffffffffffffffffffffffffffff168152602001908152602001600020819055503373ffffffffffffffffffffffffffffffffffffffff166108fc829081150290604051600060405180830381858888f193505050501515611cee57600080fd5b50565b600181815481101515611d0057fe5b906000526020600020016000915054906101000a900473ffffffffffffffffffffffffffffffffffffffff1681565b600460003373ffffffffffffffffffffffffffffffffffffffff1673ffffffffffffffffffffffffffffffffffffffff16815260200190815260200160002060000160019054906101000a900460ff161515611e9b5760018190806001815401808255809150509060018203906000526020600020016000909192909190916101000a81548173ffffffffffffffffffffffffffffffffffffffff021916908373ffffffffffffffffffffffffffffffffffffffff16021790555050604080519081016040528060006003811115611e0357fe5b815260200160011515815250600460003373ffffffffffffffffffffffffffffffffffffffff1673ffffffffffffffffffffffffffffffffffffffff16815260200190815260200160002060008201518160000160006101000a81548160ff02191690836003811115611e7257fe5b021790555060208201518160000160016101000a81548160ff0219169083151502179055509050505b50565b604080519081016040528060006003811115611eb657fe5b815260200160001515815250905600a165627a7a72305820d1678e36eb53fb93d42a2e96c1443e7db5240c486a7fdcc3faac66dfdfbde3ed0029",
  "source": "pragma solidity ^0.4.24;\n\ncontract Roulette{\n    // The croupier is the creator/owner of the smart contract.\n    address public croupier;\n\n    // Array of players participating in this table\n    address[] public players;\n    \n    // The roulette gas a fixed stake set by the croupier.\n    uint private tableStakeInWei;    \n    bool private isTableOpen = false;\n    \n    // Mapping to check if an address placed a bet on either odd or even numbers.\n    // It is not allowed to bet on both in one session.\n    // In a proper scenario alternative persistance methods should be used, for example a database.\n    // In this case mappings are easier since no query logic is required (for example iterating and checking conditions are met).\n    mapping(address => PlayerSession) private playerSessions;\n    \n    // Mapping which will be populated when a number is drawn and winnings set.\n    mapping(address => uint) private playerWinnings;\n\n    int16 private winningNumber;\n    OddEvenBet private winOddEven;\n\n    // Enum representing the choices between odd and even betting\n    enum OddEvenBet {\n        None,\n        Zero,\n        OddNumber,\n        EvenNumber\n    }\n\n    // A struct which holds player information for this gaming 'session'.\n    // A session in this context is the betting information related to this particular table.\n    struct PlayerSession {\n        OddEvenBet oddEvenBet;\n        bool isSessionCreated;\n    }\n\n    // Function modifier which requires the caller \n    // of the function to be the owner of the contract.\n    // Source: https://solidity.readthedocs.io/en/v0.5.1/structure-of-a-contract.html?highlight=modifiers#structure-function-modifiers\n    modifier ownerRequired {\n        require(\n            msg.sender == croupier,\n            \"Only owner can call this function.\"\n        );\n        _;\n    }\n\n    // Common requirements to place bets, refactored under one modifier.\n    // The croupier/owner cannot place a bet.\n    // Payment must match stake.\n    // Table is open for betting.\n    modifier bettingRequirements {\n        require(!(croupier == msg.sender), \"The house is not allowed to bet.\");\n        require(msg.value == tableStakeInWei, \"Must match the table stake.\");\n        require(isTableOpen,\"The table is not open.\");\n        _;\n    }\n\n    constructor(uint stakeAmountInWei) public\n    {\n        require(stakeAmountInWei > 0, \"A stake is required to open a table.\");\n        croupier = msg.sender;\n        tableStakeInWei = stakeAmountInWei;\n        isTableOpen = true;\n        winningNumber = -1;\n    }\n\n    // A function in which state is not changed. This is denoted by the view modifier.\n    // This is a getter function, and is used to expose the value of private variables.\n    // Security measure: Setter functions for these sensitive variables are protcted by the owner modifier.\n    // These variables can be read but not tampered with.\n    function getTableStake() public view returns (uint) {\n        return tableStakeInWei;\n    }\n\n    // Place a bet that the resullt will be an odd number.\n    function betOnOddNumber() public payable bettingRequirements\n    {   \n        // One cannot bet twice the same bet.\n        require(!(playerSessions[msg.sender].isSessionCreated == true && playerSessions[msg.sender].oddEvenBet == OddEvenBet.OddNumber), \"Already placed a similar bet.\");\n        // Either bet on odd or even.\n        require(!(playerSessions[msg.sender].isSessionCreated == true && playerSessions[msg.sender].oddEvenBet == OddEvenBet.EvenNumber), \"Already placed a bet on even numbers.\");\n        \n        registerPlayer(msg.sender);\n        playerSessions[msg.sender].oddEvenBet = OddEvenBet.OddNumber; \n    }\n\n    // Bet that the result will be an even number.\n    function betOnEvenNumber() public payable bettingRequirements\n    {        \n        // One cannot bet twice the same bet.\n        require(!(playerSessions[msg.sender].isSessionCreated == true && playerSessions[msg.sender].oddEvenBet == OddEvenBet.EvenNumber), \"Already placed a similar bet.\");\n        // Either bet on odd or even.\n        require(!(playerSessions[msg.sender].isSessionCreated == true && playerSessions[msg.sender].oddEvenBet == OddEvenBet.OddNumber), \"Already placed a bet on odd numbers.\");\n    \n        registerPlayer(msg.sender);\n        playerSessions[msg.sender].oddEvenBet = OddEvenBet.EvenNumber;   \n    }\n\n    // Closes the table for betting.\n    // Only the croupier is allowed to close the table.\n    // The function is called before drawing the number, that is, before the roulette starts 'spinning'.\n    function closeBets() public ownerRequired {\n        // We put a require so we do not spend unnecessary gas if the method is called consecutively.\n        require(isTableOpen,\"The table is already closed for bets.\");\n        isTableOpen = false;\n    }\n\n    // Sets the number drawn and assigns winnings.\n    // Only the croupier is allowed to set the number drawn.\n    // The function is called after drawing the number, that is, after the 'spin' completes.\n    function setWinningNumber(int16 numberDrawn) public ownerRequired {\n        require(!isTableOpen,\"The table must be closed for betting.\");\n        // The winning number can only se set once.\n        // This is not the optimum solution but work for the purposes of this system under development.\n        require(winningNumber < 0, \"The winning number is already set.\");\n        require(numberDrawn >= 0 && numberDrawn <= 36, \"A valid roulette number is required.\");\n        \n        winningNumber = numberDrawn;\n\n        if (winningNumber == 0)\n        {\n            winOddEven = OddEvenBet.Zero;\n        } else if (winningNumber % 2 == 0) {\n            winOddEven = OddEvenBet.EvenNumber;\n        } else {\n            winOddEven = OddEvenBet.OddNumber;\n        }\n\n        // Iterate through all the players registered with this table\n        for(uint i = 0; i < players.length; i++){\n            // Get the session for this table\n            PlayerSession memory playerSession = playerSessions[players[i]];\n            uint totalWinAmount = 0;\n\n            // Process Odd / Even bets; with 1:1 winning ratio.\n            if (playerSession.oddEvenBet == winOddEven)\n            {\n                totalWinAmount += (tableStakeInWei * 2);\n            }\n\n            /** Here go other winning processing computations. \n             ** No other code is added because this smart contract support only one type of bet. \n             */\n\n             // At the end of it all map the winnings\n             playerWinnings[players[i]] = totalWinAmount;\n        }\n    }\n\n    // Winnings are not paid automatically, instead the users call the withdraw function.\n    // Reference: Mastermind.sol > withdrawWinnings()\n    // This is a security feature to avoid exploits from bugs, also referred to as the Withdrawal pattern.\n    function withdrawWinnings() public {\n        require(!isTableOpen,\"The table is not closed for betting.\");\n        require(winningNumber > -1, \"No winning number is set.\");\n        require(playerWinnings[msg.sender] != 0, \"There are no withdrawable winnings.\");\n        require(address(this).balance >= playerWinnings[msg.sender], \"There are not enough funds to transfer.\");\n        uint transferAmount = playerWinnings[msg.sender];\n        \n        // Set the winnings mapping to 0 before the transfer.\n        playerWinnings[msg.sender] = 0;\n        require(msg.sender.send(transferAmount));\n    }\n\n    // A function in which checks is betting is allowed.\n    // The idea behind this function is not to allow the roulette 'spin' while players are allowed to bet.\n    function isBettingAllowed() public view returns (bool) {\n        return isTableOpen;\n    }\n\n    // Get the winning number.\n    function getWinningNumber() public view returns (int) {\n        return winningNumber;\n    }\n\n    // Get the winning number.\n    function isPlayerSessionCreated(address player) public ownerRequired view returns (bool) {\n         return playerSessions[player].isSessionCreated;\n    }\n\n    // Check own winnings.\n    function getWithdrawableBalance() public view returns (uint) {\n        require(!isTableOpen,\"The table is not closed for betting.\");\n        require(winningNumber > -1, \"No winning number is set.\");\n        return playerWinnings[msg.sender];\n    }\n\n    // Closes the table, destroying the smart contract.\n    // Only the croupier is allowed to close the table.\n    function closeTable() public ownerRequired {\n        // Convert croupier frm address to address payable.\n        selfdestruct(address(uint160(croupier)));\n    }\n\n    // Registers a new player, setting up all the required sessson information.\n    function registerPlayer(address player) private{\n        // If a new player, it is added to the address list\n        if(!playerSessions[msg.sender].isSessionCreated)\n        {\n            players.push(player);\n            playerSessions[msg.sender] = PlayerSession(OddEvenBet.None, true);\n        }\n    }\n\n    // The fallback function is used when the smart contract is called \n    // with a function identifier which does not exist.\n    function() external {\n        revert(\"This function is not allowed. Try another one.\");\n    }\n}\n",
  "sourcePath": "C:\\Users\\Nicholas Vella\\blockchain-casino\\contracts\\Roulette.sol",
  "compiler": {
    "name": "solc",
    "version": "0.4.24+commit.e67f0147.Emscripten.clang"
  },
  "schemaVersion": "2.0.1",
  "updatedAt": "2019-02-02T09:30:52.304Z"
}